S0310000626F6F746C6F616465722D73746F726167652D696E7465726E616C2D626C655F322D636F6D62696E65642E7333378D
S31500000000007C002071050000BD050000BD05000054
S31500000010BD050000BD050000BD050000BD050000D2
S31500000020BD050000BD050000D8050000BD050000A7
S31500000030BD050000BD050000BD050000BD050000B2
S3150000004010B5054C237833B9044B13B10448AFF30C
S3150000005000800123237010BD140100200000000061
S31500000060EC050000084B10B51BB108480849AFF372
S3150000007000800848036803B910BD074B002BFBD06E
S31500000080BDE81040184700BF00000000EC05000066
S315000000901801002010010020000000000D4AD2F8CF
S315000000A0883043F47003C2F888300B4B5A6D42F423
S315000000B000525A651A6C22F003021A64074A136842
S315000000C023F00103136052F8143C23F0805342F8E6
S315000000D0143C704700ED00E000300E4074300E40D6
S315000000E00E4A0F4BD969C90702D58AB1013AF8E71A
S315000000F072B101221861DA60DB6913F006000AD0DA
S315000001005A0707D413F0020F0CBF0020FE2002E0AE
S31500000110FD2000E0FF2040B2704700BF80969800A7
S3150000012000000E4030B509B9002037E092B91C4BEB
S3150000013050F822409C610824DC601A4B0132184CAE
S31500000140E469E50702D543B3013BF8E72BB38A42DE
S31500000150EDD1E9E7EFF3108572B60022104BDC69AA
S31500000160240706D4DC6904F01904102C08BFDC60EF
S31500000170F4E750F822409C61013210248A42DC6088
S31500000180ECD105B962B6074B054AD269D20702D54A
S315000001901BB1013BF8E7002BC6D1FD2040B230BDB4
S315000001A000000E40809698002DE9F0470E461F4944
S315000001B01F468B6843F0010381468B604FEA920825
S315000001C0B2460025454519D209EB85042046FFF7BE
S315000001D087FF38BBC4F30A04C4F50064A408C5EB62
S315000001E008039C4228BF1C46504621463A46FFF764
S315000001F099FF20B925440AEB840AE3E70020D9F8E1
S31500000200002033689A4208D04846FFF769FF20B9B4
S31500000210304601213A46FFF785FF044A936823F0EA
S315000002200103936040B2BDE8F08700BF00000E40B6
S31500000230194B9A6842F001029A6001221861DA604D
S31500000240DA69510705D59A6822F001029A60FF2003
S315000002501FE0DA69920705D59A6822F001029A60D2
S31500000260FE2016E00222DA600C4A0B4BD86910F029
S315000002700100194602D012B1013AF6E72AB98B6895
S3150000028023F001038B60FD2003E09A6822F001024F
S315000002909A6040B2704700BF00000E4080969800FA
S315000002A00023FFF781BF000008B5064B1A68064B0E
S315000002B01A6000F063F80028FBD040F2022000F03C
S315000002C085F800BF040100200001002008B500F0F9
S315000002D09DF80E4B5B68B3F5803F09D040F20923C9
S315000002E0984202D0B0F5007F02D100F013F858B959
S315000002F04FF40063064A93601A6882F3088882F313
S3150000030009885B689847FEE708BD00BF00500E40AD
S3150000031000ED00E0282370B51B681869DE68846A62
S31500000320B44201D2002070BD06F560539C42F9D25A
S315000003300444A41B0F4B22689A42F3D1E1684FF0A4
S31500000340FF3200F007F90C4B98420546EAD140F619
S315000003502803A1681B689A68914209D83046D96873
S315000003604FF0FF3200F0F6F8401B18BF012070BDB9
S31500000370012070BD07B0CD5EE320BBDEF8B52823B3
S315000003801B681F69DC68BB6A3B441D1B2646EA687E
S31500000390A3189E4205D2304600F081F806F50066A5
S315000003A0F5E73946204600F088F840F6280320464F
S315000003B01B684FF0FF32D96800F0CCF8024BC31A25
S315000003C058425841F8BD00BFE320BBDE4FF0005352
S315000003D04FF20F025A800A4A1880136823F4E0632A
S315000003E043F480631360BFF34F8F0649064BCA6818
S315000003F002F4E0621343CB60BFF34F8F00BFFDE70B
S3150000040000500E4000ED00E00400FA054FF00053E6
S315000004104FF20F015A888A4201D1188870473AB9BB
S315000004201B88012B40F2022018BF4FF40070704762
S315000004304FF4007070470000044B41F671321A64A5
S315000004409A6822F001029A60704700BF00000E40D1
S31500000450034B9A6822F001029A6000221A647047E0
S3150000046000000E4013B5830745BF09046FEA11412A
S315000004706FEA01416FEA014158BF6FEA114120F06E
S3150000048003040191FFF7D8FF01A904222046FFF7D4
S3150000049007FF0446FFF7DCFF204602B010BD10B58B
S315000004A00446FFF7C9FF2046FFF7C2FE0446FFF7E2
S315000004B0CFFFB4FA84F0400910BD40EA02032DE9EB
S315000004C0F0411446DA0705460E4602D50020BDE87F
S315000004D0F08114B90120BDE8F081830708D50988A9
S315000004E0FFF7C0FF0028F1D1023CF3D002350236F7
S315000004F024F00307FFF7A0FF284631463A46FFF7E8
S31500000500CFFE8046FFF7A4FFB8F1000FDED1BC4254
S31500000510E0D07819F15BFFF7A5FFB0FA80F040094B
S31500000520BDE8F081484010B5C0B20C0A082310F0AF
S31500000530010F4FEA500218BF054803F1FF3314BFFD
S315000005405040104613F0FF03F1D1604010BD00BFCC
S315000005502083B8ED38B504464518AC4206D011469E
S3150000056014F8010BFFF7DEFF0246F6E7104638BD2A
S315000005700B4880470B4880470B490C4A0C4B9A4264
S31500000580BEBF51F8040B42F8040BF8E709490A4AC2
S3150000059000209142BCBF41F8040BFAE7FFF784FE46
S315000005A09D000000CD020000F005000000010020C3
S315000005B0140100201401002030010020FEE700BFD6
S315000005C0F8B500BFF8BC08BC9E467047F8B500BF3A
S315000005D0F8BC08BC9E467047AD1007B0010000008D
S315000005E00000040100080000008000000000000078
S315000005F0C0EA2101C0EA21016500000041000000B7
S3090000060000000000F0
S31500000800007C0020E5080000E10800003509000032
S31500000810E1080000E1080000E1080000E10800002E
S31500000820E1080000E1080000AC310000E10800002A
S31500000830E1080000E1080000E1080000E10800000E
S3150000084010B5054C237833B9044B13B10448AFF304
S3150000085000800123237010BD140100200000000059
S3150000086070330000084B10B51BB108480849AFF3B8
S3150000087000800848036803B910BD074B002BFBD066
S31500000880BDE81040184700BF0000000070330000AC
S315000008901801002010010020000000000D4AD2F8C7
S315000008A0883043F47003C2F888300B4B5A6D42F41B
S315000008B000525A651A6C22F003021A64074A13683A
S315000008C023F00103136052F8143C23F0805342F8DE
S315000008D0143C704700ED00E000300E4074300E40CE
S315000008E0FEE7000008B5FFF7D9FF00F08FF80A4AC7
S315000008F00A4B0B498B4204D252F8041F43F8041BDF
S31500000900F7E7084B084A934203D2002243F8042B28
S31500000910F8E700F015F800BF703300000001002072
S3150000092014010020140100203001002000F0D6BE82
S3150000093000F029BF08B54FF4017001F0DDFE00009C
S315000009402A4B1A682A4B13B51A602A4BDC6C01A88D
S31500000950240E00F0A5FE8E2C15D82749274AD1F87B
S31500000960B00040F00403C1F8B0304FF050131360EC
S3150000097013631366C2F89030C2F8C030C2F8F03084
S31500000980C1F8B00001E08F2C06D11B4AD36A23F0D0
S315000009907F0343F02003D3629DF80530012B01BF8E
S315000009A0174A136843F004031360164B00221A60BB
S315000009B0FFF7BCFF01F099FE01F0DEF910B940F235
S315000009C001200DE0104B0193019B002B02DD019BE2
S315000009D0013BF8E740F20543984203D140F2032079
S315000009E001F08AFE4FF40170FAE700BF040100200F
S315000009F000010020B081E00F00400E4000A0004042
S31500000A0064310E40B40AC64300350C0008B51F4BCE
S31500000A105A68B2F5803F10D05B685B0532D501F0AD
S31500000A208BFEA0F2022080B207282BD80123834038
S31500000A3013F0C90F26D0002325E00023012244F23B
S31500000A4004010968013105D14FF40270BDE8084080
S31500000A5001F044BE93B14FF4804001F0B3FD00288D
S31500000A60F2D00B4A4FF4804393601846016881F335
S31500000A70088881F309884068874602E0002AF0D199
S31500000A8008BDFEE701231A46D9E700BF00500E4015
S31500000A9000ED00E000207047484010B5C0B20C0AD7
S31500000AA0082310F0010F4FEA500218BF054803F162
S31500000AB0FF3314BF5040104613F0FF03F1D16040DE
S31500000AC010BD00BF2083B8ED38B504464518AC42CA
S31500000AD006D0114614F8010BFFF7DEFF0246F6E7D3
S31500000AE0104638BDF8B504461D4616460F4600F0BA
S31500000AF0BAFE079A0699204600F0BBFE0023636201
S31500000B0084F838703268C4F839207268C4F83D2019
S31500000B10C5F30743B26884F84530C5F30723C4F824
S31500000B20412084F8463084F84750F8BD30B585B08A
S31500000B3000F12805019102921946009500F1240260
S31500000B4000F1380300F0B3FE05B030BDF0B50F4636
S31500000B50A3B01646044638B331B32AB3144801216C
S31500000B6000F05EFC4022002102A802F00AFB01F020
S31500000B704BF9014602A800F013FB01F049F912AD4A
S31500000B8001460AA800F00CFB2846394600F008FB8F
S31500000B901AA8314600F004FB00952146202202AB3C
S31500000BA0044800F00FFB01E040F2016023B0F0BD05
S31500000BB00015080000000F4010B5044601F000F8CB
S31500000BC020460021BDE8104001F000B801F06CB8E5
S31500000BD0014601F06DB81C2350F8042F0AB9043BF6
S31500000BE0FAD1002BCCBF00200120704730B58A68AF
S31500000BF00D684C68CB6805600460026003600D698F
S31500000C004C698A69CB69056004600260036030BD87
S31500000C1030B50568046802680368CB600D604C60F7
S31500000C208A600568046802680368CB610D614C61DF
S31500000C308A6130BD2DE9F04104461D460E469046B8
S31500000C4000212022184602F09CFA01232B6000F0B6
S31500000C5025FC4146074604F58070FFF7C7FF31467D
S31500000C6004F5827004F58476FFF7C0FF3046294606
S31500000C70FFF7BCFF384600F015FC0D4B2365636992
S31500000C80DB0108D40B4B23650B4B63650B4BA3654C
S31500000C900B4BE365F3E700F001FC294604463046BA
S31500000CA0FFF7B6FF2046BDE8F04100F0FBBB00BFF2
S31500000CB039398401D02484FC1C82FED88B1C81A087
S31500000CC0393801002DE9F04F8DB004460F46154620
S31500000CD0984600F0E3FB04F5827607F1400A814668
S31500000CE051463046FFF782FF04F5867318462946BB
S31500000CF00393FFF77BFF04F58872104605F1200188
S31500000D000292FFF773FF484600F0CCFB424921658B
S31500000D104249616501254249A165E56500F0BEFBD2
S31500000D2004F5847907F1200B019039463046FFF728
S31500000D305DFF48465946FFF759FF029A514610464D
S31500000D40FFF754FFDDF804C0604600F0ABFB354A00
S31500000D502265354A6265A56500F0A0FB04F5807A38
S31500000D60019008F140015046FFF752FF04A948469A
S31500000D70FFF74EFF019A104600F094FB00F08EFB41
S31500000D80039B019039461846FFF730FF019A10463B
S31500000D9000F088FB254B2365254B63656FF42672AF
S31500000DA0A3F5FE231344A365E56500F077FB5946DA
S31500000DB007463046FFF71AFF384600F073FB1D4B17
S31500000DC023651D4B6365A56500F068FB4146074634
S31500000DD04846FFF71DFF384600F064FB00F05EFB57
S31500000DE004A907463046FFF701FF384600F05AFBD4
S31500000DF0124B2365124B6365A56500F04FFB08F1A6
S31500000E00200104465046FFF703FF204600F04AFB48
S31500000E100DB0BDE8F08F00BF8AD11C81D91C83D1EB
S31500000E201C81E11CD01482CB1481E11C8CE11C8155
S31500000E301C84D91CE014D8141482E11C84D31482B7
S31500000E40D11CE0142DE9F04FA5B004461D460092D2
S31500000E508B462022002104A802F093F905F1200711
S31500000E600123002120222846049305F1400802F0C0
S31500000E7088F900212022384602F083F90021202239
S31500000E80404602F07EF92046052100F00EFB0023C5
S31500000E902360FF262363636306F01F0101238B4053
S31500000EA07211009951F82220134201D1013EF3D16B
S31500000EB000F0F4FA04F58272394681461046029231
S31500000EC0FFF794FE484600F0EDFA7E4B23657E4B15
S31500000ED063657E4BA36500F0E1FA04F5807A14A9F8
S31500000EE081465046FFF794FE484600F0DBFA00F0D4
S31500000EF0D5FA294681465046FFF778FE484600F067
S31500000F00D1FA734B2365734B63654FF48673A36500
S31500000F1000F0C4FA04F5867901900CA94846FFF75B
S31500000F2077FE1CA95046FFF773FE019B184600F09A
S31500000F30B9FA00F0B3FA029A0190414610460392BC
S31500000F40FFF754FE019B184600F0ACFA624B23658E
S31500000F500123636500F0A2FA04F584732946019023
S31500000F6018460293FFF742FEDDF804C0604600F023
S31500000F7099FA5A49216501F1D94101F5DE1101F5C8
S31500000F8095616165A1F58611A1F2BA410123A165BA
S31500000F90E36500F083FA029B01901CA91846FFF74F
S31500000FA025FE0CA94846FFF721FEDDF804C0604681
S31500000FB000F078FA4A4921654A4961654A49A165BE
S31500000FC000F06CFA2946019004F58870FFF720FEC0
S31500000FD0DDF804C0604600F065FA00F05FFA039A97
S31500000FE0019039461046FFF701FE029B414618461E
S31500000FF0FFF7FCFD14A94846FFF7F8FDDDF804C02D
S31500001000604600F04FFA394B2365394B636500F0B3
S3150000101045FA414601905046FFF7FAFD39464846E3
S31500001020FFF7F6FD019B184600F03CFA012106F099
S315000010301F0301FA03F37211009951F8222013429B
S3150000104038D02B687BB92846FFF7C5FD58B12B6A07
S315000010504BB93846FFF7BFFD28B12B6C1BB940468C
S31500001060FFF7B9FD30B9204629465A462B46FFF709
S3150000107029FE1FE05B462A460BF1200153F8040BBC
S3150000108042F8040B8B42F9D13A4603F1200153F89A
S31500001090040B42F8040B8B42F9D10DF1100E4246B7
S315000010A0734603CB51600CA98B4210609E4602F139
S315000010B00802F5D116F1FF36BFF4FAAE25B0BDE849
S315000010C0F08F00BF8AD11C81821CC00C0C0C010061
S315000010D0C00C0C83D91C83D88AD11C83DA0C8114EA
S315000010E08CE11CD01484E31482D11C01D81483D162
S315000010F01CC00C012DE9F041044690B00F46244E69
S315000011000521904600F0D1F9002323602363636331
S315000011100FCE08AD0FC596E80F0085E80F0008AAA8
S315000011206B4607F140012046FFF784FD00F0B6F953
S3150000113004F586750646694604F58270FFF756FD86
S3150000114028463946FFF752FD07F1200104F588705D
S31500001150FFF74CFD304600F0A5F90E4B23650E4B0C
S3150000116063650E4BA3650123E36500F097F908F16B
S315000011702001064604F58070FFF74AFD28464146E1
S31500001180FFF746FD304600F08DF910B0BDE8F0815E
S31500001190EC3100008AD11C81D91C83D11C81E11C51
S315000011A038B5202204460D46002101F0EAFF631EF1
S315000011B005F120011F3411F8012D03F8012FA34278
S315000011C0F9D138BD2DE9F04FBDB0044600929A46DC
S315000011D0469E0F46002900F00381002B00F0008197
S315000011E0002E00F0FD80002A40F3FA8000250560FD
S315000011F0056345634368DFF80C8243F010034360E0
S315000012000C2100F052F9636823F4406343F4006351
S315000012106360636823F4407343F400736360B8E863
S315000012200F000DF1B00EAEE80F0098E80F008EE843
S315000012300F0000F033F904F58479834631464846B9
S3150000124004F58678FFF7D2FC2CA94046FFF7CEFCC2
S31500001250584600F027F9654A2265012363656169EE
S31500001260C90102D440F20260BCE00393029200F08E
S3150000127015F906F1200B019059464846FFF7B6FCD2
S3150000128040462CA9FFF7B2FC019800F00BF9039B2E
S31500001290029A226563656369DB01E3D5294634A8B2
S315000012A0202201F06EFF009D202DA8BF2025013DC4
S315000012B0013F25F003033CAA4033134405F0030124
S315000012C017F8012FC90002FA01F153F8602C15F145
S315000012D0FF3542EA010243F8602CEAD200F0DEF85C
S315000012E034A905464846FFF781FC284600F0DAF89F
S315000012F03F4B236500F0D2F804F58075074634A904
S315000013002846FFF785FC384600F0CCF82CAA04AB3B
S3150000131059462046FFF78EFC00F0C0F804F58877A2
S31500001320834604A904F58270FFF760FC384634A9A9
S31500001330FFF75CFC31464046FFF758FC584600F084
S31500001340B1F82C4B236503F1FA43A3F500636365FB
S3150000135000F0A4F834A983463846FFF759FC28461E
S3150000136004A9FFF755FC584600F09CF82046224990
S3150000137034AA0CABFFF766FD24AB2046514604AAFF
S31500001380FFF760FD0CA90A462046FFF7B3FE24A925
S315000013900B4620460CAAFFF795FC24A90A462046D0
S315000013A0FFF7A8FE00F07AF80C210546204600F06B
S315000013B07CF8484624A9FFF719FC40463146FFF75A
S315000013C015FC284600F06EF80C4B23650C4B636544
S315000013D0636913F0807F40F2046018BF002001E0CB
S315000013E040F201603DB0BDE8F08F00BF3035DA1045
S315000013F030D00C0130E11C842C3200003035DA1478
S31500001400393801000C320000044BD3F84421D207CE
S3150000141003D4D3F840211042FBD1704700400E4060
S31500001420C0F30322013A70B503460E46092A26D8B0
S31500001430DFE802F018082525050B0E2511150020FA
S315000014400F4C11E000200F4C0EE001200E4C0BE07B
S3150000145010200E4C08E04FF480300D4C04E00020C4
S315000014600C4C01E00C4C0020C3F3043508B1FFF727
S31500001470CBFF04F1047405EBC404A400266070BD20
S31500001480B0400E40C0400E40E0400E40E8400E40E6
S31500001490F0400E4050410E4000400E40EFF31080E9
S315000014A072B6704700B962B670470E2910B5426829
S315000014B010D822F01F0301228A4047F2E0041440AC
S315000014C024B940F61F74144024B101E043F0100320
S315000014D00B43436010BD00000E4A0F4BD969C90784
S315000014E002D58AB1013AF8E772B101221861DA60D1
S315000014F0DB6913F006000AD05A0707D413F0020F6F
S315000015000CBF0020FE2002E0FD2000E0FF2040B2DC
S31500001510704700BF8096980000000E4030B509B9AC
S31500001520002037E092B91C4B50F822409C610824F9
S31500001530DC601A4B0132184CE469E50702D543B367
S31500001540013BF8E72BB38A42EDD1E9E7EFF31085CB
S3150000155072B60022104BDC69240706D4DC6904F05D
S315000015601904102C08BFDC60F4E750F822409C6197
S31500001570013210248A42DC60ECD105B962B6074B11
S31500001580054AD269D20702D51BB1013BF8E7002B09
S31500001590C6D1FD2040B230BD00000E4080969800B6
S315000015A02DE9F0470E461F491F468B6843F001039D
S315000015B081468B604FEA9208B2460025454519D20E
S315000015C009EB85042046FFF787FF38BBC4F30A04FE
S315000015D0C4F50064A408C5EB08039C4228BF1C465A
S315000015E0504621463A46FFF799FF20B925440AEBB3
S315000015F0840AE3E70020D9F8002033689A4208D02D
S315000016004846FFF769FF20B9304601213A46FFF701
S3150000161085FF044A936823F00103936040B2BDE856
S31500001620F08700BF00000E40194B9A6842F0010295
S315000016309A6001221861DA60DA69510705D59A685D
S3150000164022F001029A60FF201FE0DA69920705D5B1
S315000016509A6822F001029A60FE2016E00222DA6001
S315000016600C4A0B4BD86910F00100194602D012B192
S31500001670013AF6E72AB98B6823F001038B60FD2057
S3150000168003E09A6822F001029A6040B2704700BFF8
S3150000169000000E40809698000023FFF781BF0000EF
S315000016A00B4A536903F00F011369C3F3811343EA2D
S315000016B081038370136903F03F034370936903F05A
S315000016C0F001D369C3F303130B430370704700BFE4
S315000016D0D0FF0FE0004870476C32000000207047D2
S315000016E0024BD86900F00100704700BF00000E40B1
S315000016F008B503461044B0F5802F02D940F20240E7
S3150000170008BD0846194601F031FD002008BD8318C2
S31500001710B3F5802F10B502D940F2024010BD034642
S315000017201C1A944206D253F8044B0134F8D040F206
S31500001730034010BD00F06FFE002840F2024018BFC3
S31500001740002010BD38B5C1F30A030446C3B9C0F37F
S315000017500A03ABB90D18B5F5802F04D940F2024043
S3150000176038BD0028FAD0204604F5006400F045FE96
S31500001770A542F6D1002840F2024018BF002038BD2D
S3150000178040F2044038BD0020704700F10473102A6F
S3150000179030B54FEA43131AD101221A600D684C681E
S315000017A08A68CB68C0F81051C0F81041C0F8102103
S315000017B0C0F810310D694C698A69CB69C0F81051BF
S315000017C0C0F81041C0F81021C0F8103130BD002219
S315000017D01A600D684C688A68CB684562446242624A
S315000017E0436230BD7FB58B07024613D00B466D466C
S315000017F001F11006186859682C4603C40833B34231
S315000018002546F7D1009B1360019B1360029B136072
S31500001810039B06E00D684C688868CB681560146009
S315000018201060136004B070BD30B5056804680268C6
S315000018300368880785B010D000950194039302923F
S315000018406C460B4604AD224603CAAA42186059608C
S31500001850144603F10803F6D103E00D604C608A607C
S31500001860CB6005B030BD18B10021242201F089BC3F
S31500001870704770B50E461546044690B189B10021F1
S31500001880242201F07EFC802D02D0B5F5807F0BD19D
S315000018902046314640F8045BEA0801F067FC002068
S315000018A070BD6FF0210070BD6FF01F0070BD2DE997
S315000018B0F74F80460F469A4615460AB1166800E06D
S315000018C01646B8F1000F00F0AE800D9B002B00F01D
S315000018D0AA800E9B002B00F0A680BAF1000F00F044
S315000018E0A2800C9B002B00F09E80D8F80030802B45
S315000018F003D0B3F5807F40F099804FF00009B945D9
S3150000190080F08D8076B10C9B995D0D9B13F80920B4
S315000019100E9B4A40013603F8092006F00F0609F12E
S315000019200109ECE700F08AF84FF440424660026095
S315000019300446FFF7B3FDD8F80020802A0CBF082222
S315000019401022834608F104012046FFF71EFF04F12A
S315000019508403184651460093FFF744FF5846FFF7A5
S31500001960A1FDC9EB070222F00F0202EB090BD945D4
S3150000197044D04821A1600521A16021698A07FCD4D1
S315000019800321A160FFF78AFD0D9B019003EB09017E
S3150000199004F1A000FFF726FF0E9B04F1800003EB85
S315000019A00901FFF741FFDDF804C06046FFF77AFD45
S315000019B009F11009DBE79EB94823A3600523A3605C
S315000019C023699B07FCD40323A360FFF767FD0C99EB
S315000019D0814604F18000FFF727FF4846FFF762FDC6
S315000019E00C9B0E9A995D0D9B13F80B3001364B40FC
S315000019F002F80B3006F00F060BF1010BBB45DAD1EE
S31500001A00FFF74CFD514681460098FFF70DFF48460B
S31500001A10FFF748FD204600F01BF8B9466FE745B1D1
S31500001A202E60002006E06FF0210003E06FF01F003B
S31500001A3000E0284603B0BDE8F08F0000024B0348E3
S31500001A4001221A60704700BF0416C84300000F4009
S31500001A50054B984201BF03F16E7303F58B330433D4
S31500001A60002208BF1A60704700000F408A68CB68E2
S31500001A7030B50D684C6805600460026003600D694E
S31500001A804C698A69CB6905600460026003600D6A6F
S31500001A904C6A8A6ACB6A05600460026003600D6B5B
S31500001AA04C6B8A6BCB6B056004600260036030BDD3
S31500001AB02DE9F04790B00546894690461F46FFF748
S31500001AC0BDFF044627B1012F03D10423036000E0C4
S31500001AD0076000276760E764636823F44063636018
S31500001AE027636763FFF7DAFC6A68A968EB682E6804
S31500001AF0C4F80461C4F80421C4F80411C4F804311C
S31500001B00EB696A69A9692E69C4F80461C4F80421FD
S31500001B10C4F80411C4F80431FFF7C4FC264B23654E
S31500001B2047454E4626D016F0030F06F1400912D05F
S31500001B306A4630687168134603C308364E451A462E
S31500001B40F7D1FFF7ABFC6946064604F5D270FFF7FE
S31500001B508DFF304608E0FFF7A1FC3146824604F5CA
S31500001B60D270FFF783FF5046FFF79CFC134B2365AB
S31500001B700137D5E7FFF792FCD4F80061D4F80011DD
S31500001B80D4F80021D4F80031EB602E606960AA60B9
S31500001B90D4F80061D4F80011D4F80021D4F800314B
S31500001BA0EB616961AA612E61FFF77CFC2046FFF7B5
S31500001BB04FFF10B0BDE8F087888AC801070D810184
S31500001BC018B100216C2201F0DCBA7047002330B551
S31500001BD00362436281B1104C012380F8683004F13E
S31500001BE020050346224603CAAA42186059601446D5
S31500001BF003F10803F6D130BD084C80F8681003469F
S31500001C0004F12005224603CAAA4218605960144608
S31500001C1003F10803F6D130BDA03200000033000006
S31500001C2001221346FFF744BF036A2DE9F04103F092
S31500001C303F051344934203623CBF436A01330646A1
S31500001C400F46144638BF436295B1C5F14008424578
S31500001C500ED305F128004246304401F087FA30469B
S31500001C6006F12801FFF7DCFF4744C8EB0404002512
S31500001C703F2C0DD94FEA94183946424630464FEA72
S31500001C8088180123FFF714FF4744C8EB0404EFE765
S31500001C9044B105F12800304439462246BDE8F041FA
S31500001CA001F064BABDE8F0810AB1FFF7BDBF704725
S31500001CB037B5026A0D46416A530F43EAC10304462B
S31500001CC0180ED1008DF80000180C02F03F028DF8B6
S31500001CD001008DF80330180A0B0E372A8DF80430F0
S31500001CE04FEA114394BFC2F13802C2F178028DF86F
S31500001CF002008DF805308DF807100B0A20460F49B3
S31500001D008DF80630FFF7D0FF204608226946FFF718
S31500001D108BFF94F868002A460028A2EB050314BF3F
S31500001D201C2120218B4206D29B0854F823301BBA73
S31500001D3042F8043BF0E703B030BD00BFC0320000FC
S31500001D400020704700207047002070470020704731
S31500001D5040F628031B681869704700002823044AC8
S31500001D601B68196891420CBF18690020704700BFB4
S31500001D70AD1007B00020704700B5E1B04FF0FF335B
S31500001D8001A80121019300F0CDF9002838D101986E
S31500001D90431C02D140F2054032E002A94FF4BC7266
S31500001DA000F056F902A8002100F0A5F840F2012340
S31500001DB09842F7D040F203239842EBD19DF80830C1
S31500001DC09BB19DF80930002BE4D040F62803039917
S31500001DD01B689B68994208D95C9800F06BF900284B
S31500001DE0D8D040F2092000F087FC9DF80930002B7E
S31500001DF0D0D05C98059900F07DF90028CAD0002063
S31500001E0061B05DF804FB0000004870474A43E00FEC
S31500001E10004870476A43E00F004870478642E00F6B
S31500001E2089B10A4B5A68904203D300230B604B607A
S31500001E3009E0013053F830200A6003EBC0030020AC
S31500001E405B684B60704740F201407047903200007B
S31500001E5001221A707047000010B5044660B14FF4B5
S31500001E608032002380E80C00044B1A785B6802720B
S31500001E70C360FFF72FFC206110BD00BF9032000049
S31500001E8070B50D4C6568A8420FD2013004EBC00650
S31500001E90CD187668B5420BD854F83000BDE87040CE
S31500001EA0084411461A46FFF723BC40F2014070BDB4
S31500001EB040F2024070BD00BF9032000030B50446CB
S31500001EC0A3B00D4602AAD4F87011D0F86801802399
S31500001ED0FFF7D6FF009504F12400214602AA8023CD
S31500001EE000F0B4FDD4F87031C4F874018033C4F83E
S31500001EF0703123B030BD1FB50023009301930393C7
S31500001F00D0F87431029104469BB9D0F87021D0F80C
S31500001F106C319A420DD26946FFF7D0FFD4F87401AE
S31500001F2098B140F2012341F20702904208BF1846D9
S31500001F3010E0A37863B1E07840F2032240F2022376
S31500001F4000280CBF1846104604E040F2012001E0CC
S31500001F5040F2022004B010BD70B586B006AB0D4647
S31500001F60002103F8111D04461646029311601F4B0B
S31500001F70039328461C220493059301F002F99DF869
S31500001F80070088B994F86A30112B0DD0D4F8743153
S31500001F9053B9D4F87021D4F86C319A4204D2204651
S31500001FA002A9FFF78BFFEAE723780BB1636833607A
S31500001FB06378ABB104F1080304F1240253F8041B5F
S31500001FC045F8041B9342F9D140B963785BB923788D
S31500001FD0002B40F2064018BF002004E0002002E07B
S31500001FE00028F4D0184606B070BD00BF511E000090
S31500001FF070B50D4C6568A8420FD2013004EBC006DF
S31500002000CD187668B5420BD854F83000BDE870405C
S31500002010084411461A46FFF77ABB40F2014070BDEC
S3150000202040F2024070BD00BF90320000074B5A6874
S31500002030904207D2013003EBC00253F830005168DA
S31500002040FFF780BB40F20140704700BF90320000AE
S3150000205037B505460C460846114600F009FB48B957
S3150000206028466946FFF7DCFE20B9019BC4F8685193
S31500002070C4F86C3103B030BD38B504460D46243083
S3150000208004F1B40104F1FC02202300F09FFCD4F813
S31500002090743153B9D4F87021D4F86C319A4204D211
S315000020A020462946FFF70AFFF1E7A07800B1E0785D
S315000020B038BD000040F6280300B51B689B689942AE
S315000020C0E3B001D800200FE004A94FF4BC72FFF77B
S315000020D0BFFF0028F6D1009001900290044B0393B5
S315000020E004A86946FFF7C8FF63B05DF804FB00BFAC
S315000020F05925000000B5E3B004A94FF4BC72FFF700
S31500002100A7FF48B90090064B02900390694604A8C1
S315000021100193FFF7B1FF00E0002063B05DF804FB18
S31500002120012500002DE9F0419AB0502204460D46E3
S3150000213006A8002101F025F80021142201A801F0CB
S3150000214020F801A8FFF788FE049B012B0CD800237A
S3150000215023600123AB4205D24FF0FF3244F823201F
S315000021600133F7E700206FE0AB426BD3FFF702FEC7
S31500002170059B06A90C220646DF68FFF7B9FA002878
S3150000218062D1DFF8D080069B434510D106A9089A94
S315000021903046FFF7ADFA06A808994FF0FF32FEF772
S315000021A093FC2B4B984233D004EB850529E037444A
S315000021B0384606A90C22FFF79BFA002844D1069B55
S315000021C043450BD004EB8505AC4204D04FF0FF33FA
S315000021D044F8043BF8E740F2055035E006A93846D6
S315000021E0089AFFF785FA059B3046D968FFF7AAFAE1
S315000021F050BB304606A9089AFFF789FA0028C5D0D1
S3150000220022E0AC42E7D04FF0FF3344F8043BF8E756
S315000022101AAA214652F8483D103B9B08AB4228BFFC
S315000022202B4604EB8300814204D052F8046F41F838
S31500002230046BF8E7AB4295D24FF0FF3244F8232007
S315000022400133F7E740F204501AB0BDE8F08100BF51
S31500002250E320BBDE39528FE1F0B550269BB00C4629
S3150000226032460021054606A800F08BFF2E4B06934A
S3150000227000210123142201A80793089600F081FF8C
S3150000228001A8FFF7E9FD049BA34248D3012B07D819
S315000022902B680133012B40F2045098BF002040E028
S315000022A0FFF768FD059B102CDF68214628BF10212B
S315000022B00646074408AB284605EB8102904204D047
S315000022C050F8044B43F8044FF8E7102907D006AB43
S315000022D003EB81034FF0FF32DA600131F5E74C2161
S315000022E006A84FF0FF32FEF7EFFB059BC04319909F
S315000022F0D9683846FFF726FA98B9384606A9502213
S31500002300FFF705FA68B9059B3046D968FFF71AFA50
S3150000231038B9304606A95022FFF7F9F901E040F234
S3150000232004501BB0F0BD00BF39528FE170B596B0B6
S3150000233000211422064601A800F023FF01A8FFF79A
S315000023408BFD049C012C02D840F2025020E006AD21
S3150000235028462146FFF7E6FE20B140F20553984293
S3150000236016D1002055F820305A1C09D116AB03EBC4
S315000023708000214640F8406C2846FFF76DFF07E0D5
S31500002380B34203D00130A042ECD1DDE740F2035066
S3150000239016B070BD044B41F671321A649A6822F089
S315000023A001029A60704700BF00000E40034B9A6816
S315000023B022F001029A6000221A64704700000E4063
S315000023C013B5830745BF09046FEA11416FEA01415E
S315000023D06FEA014158BF6FEA114120F003040191F1
S315000023E0FFF7D8FF01A904222046FFF755F9044656
S315000023F0FFF7DCFF204602B010BD10B50446FFF71C
S31500002400C9FF2046FFF710F90446FFF7CFFFB4FADD
S3150000241084F0400910BD40EA02032DE9F04114465C
S31500002420DA0705460E4602D50020BDE8F08114B94C
S315000024300120BDE8F081830708D50988FFF7C0FFB2
S315000024400028F1D1023CF3D00235023624F003070E
S31500002450FFF7A0FF284631463A46FFF71DF98046AA
S31500002460FFF7A4FFB8F1000FDED1BC42E0D0781927
S31500002470F15BFFF7A5FFB0FA80F04009BDE8F081F7
S31500002480F0B51E4B446BA1B001AA064603F1100E2F
S31500002490174618685968154603C5083373452A4612
S315000024A0F7D120463946102200F050FE18B963696C
S315000024B0012B21D1A46940F628031B681B69A3429E
S315000024C019D8B44217D3B4F5802F14D805A8FEF74F
S315000024D073FB3146A21B05A8FEF778FB05A8FEF79D
S315000024E077FB05A8214604F12002FEF72FFBB0FA80
S315000024F080F0400900E0002021B0F0BD603300000C
S3150000250040F628032DE9F0411B6816461A698242F7
S31500002510054688461DD85B698719BB4219D3C0F3A7
S315000025200A030BB9FFF769FF05F5006424F4FF649D
S3150000253024F00704BC4205D22046FFF75EFF04F5EF
S315000025400064F7E7284641463246BDE8F041FFF70A
S3150000255062BFBDE8F081000028232DE9F0411B6829
S31500002560884616461968164A914227D11D6940F6D3
S31500002570280305441B685A69AF19BA421ED310B91D
S315000025801869FFF73AFFC5F30A0313B92846FFF7A0
S3150000259034FF05F5006424F4FF6424F00704BC420C
S315000025A005D22046FFF729FF04F50064F7E7284621
S315000025B041463246BDE8F041FFF72DBFBDE8F08148
S315000025C0AD1007B0F0B5284B85B004466A4603F156
S315000025D010076E4618685968154603C50833BB428E
S315000025E02A46F7D123686268656B03F16043B3F549
S315000025F0F84F34D840F628031B681B699A422ED33D
S31500002600B2F5802F2BD840339D4202D3B5F5802FEB
S3150000261005D9FEF73FFA80F00100C0B222E0FEF7CE
S3150000262039FA28B1204605B0BDE8F040FFF728BFCB
S3150000263028463146102200F089FD90B96B6983B1B6
S31500002640022BEFD1A96904312046091B4FF0FF3256
S31500002650FEF73AFA054BC31A5842584102E00020E9
S3150000266000E0012005B0F0BD60330000E320BBDED2
S31500002670B1F5BC7F10B504460FD300214FF4BC72F0
S3150000268000F07FFD04F1240004F1B40104F1FC0222
S315000026900023BDE8104000F099B940F2052010BDB6
S315000026A013B5044600912430214600F0CFF9C4F852
S315000026B0740118B141F2070398420DD1A3784BB1CA
S315000026C0E07840F2022240F20323002814BF1846A5
S315000026D0104601E040F2012002B010BD4FF0005359
S315000026E04FF20F0218805A8070474FF000534CF299
S315000026F03C325A80704700004FF000534FF20F02F1
S315000027005A800A4A1880136823F4E06343F480630E
S315000027101360BFF34F8F0649064BCA6802F4E062A6
S315000027201343CB60BFF34F8F00BFFDE700500E4051
S3150000273000ED00E00400FA054FF000534FF20F01E0
S315000027405A888A4201D1188870473AB91B88012BEA
S3150000275040F2022018BF4FF4007070474FF400702B
S31500002760704710B54B688C689C421ED290F840208A
S31500002770121B1344402B18D88B684A68934212D216
S315000027800A6890F84140D25C90F84030234403F048
S315000027903F03C2548B6801338B6090F8403001339D
S315000027A080F84030E8E7012010BD002010BDF8B5E4
S315000027B017468D684A68551B90F840202A449A426D
S315000027C004460E4608D2FFF7CCFF68BB122384F8F6
S315000027D0463041F20200F8BD002594F84020E2B1EF
S315000027E09D421AD094F84120A25C7A5594F8412073
S315000027F0013202F03F0284F8412094F84020013A69
S3150000280084F840200135E8E79D420AD231688A5CA7
S315000028107A55B2680132B2600135B26871688A428F
S31500002820F2D39D42D2D101E00020F8BD38462946B8
S31500002830D4F88820FEF748F99DF81830C4F88800C7
S3150000284023B1E06C39462A46FEF7C0F99DF81C30E4
S3150000285043B194F843302BB1A06C39463A462B4627
S31500002860FEF764F994F8433043B1E36DA26D2B444F
S315000028709342E36524BF002384F84330636D1D440F
S31500002880656541F20300F8BD30B585B000230093BD
S3150000289001931546082302AA0446FFF788FF41F272
S315000028A0030398423FD194F8433053B1E06C02A938
S315000028B00822FEF78BF902A9A06C0A460823FEF748
S315000028C035F99DF80A309DF80B209DF80F101B0472
S315000028D043EA02639DF8082013439DF8092043EA62
S315000028E002239DF80E202B60120442EA01629DF835
S315000028F00C100A439DF80D1042EA01226A6094F812
S31500002900432052B9094A934207D0094A934204D058
S31500002910E06C02A90822FEF759F96B6823650023CB
S31500002920636541F2030005B030BD00BFF70A0AF740
S31500002930FC0404FC2DE9F8431F465B6805468846FF
S315000029401646002B3FD0FFF703FA296E021D7418B6
S3150000295094421BD31C30814218D28A42134638BF98
S315000029600B46A04294BFC3EB0004C3EB0404591A00
S31500002970981A08EB0109683049462246284400F0B7
S31500002980F5FB4846FF21224600F0FBFBFFF7E6F980
S31500002990296E031D99420DD8741800F1080294425D
S315000029A008D3581A4044FF210368C5F88030042232
S315000029B000F0E7FB32463B687C68286E4146A0473C
S315000029C02B6E1E442E660020BDE8F88303F020031C
S315000029D070B580F8423015464FF0FF3300220446AA
S315000029E0C0F8883080F8462080F8402080F84120E2
S315000029F080F8432080F8452080F84420026642662D
S31500002A000E461822FF21683000F0BBFBFF2104228E
S31500002A1004F1800000F0B5FB04F18400FF210422DC
S31500002A2000F0AFFBA664E564FFF790F918B116B99C
S31500002A3041F20B0070BDFFF787F908B10DB9F7E752
S31500002A4015B1E06CFEF7B8F8002070BD2DE9F04F27
S31500002A5099B00026229D059204468846994606931B
S31500002A600796079A4A4580F0688394F84630122BF9
S31500002A70F8D8DFE813F013002800000170013401D4
S31500002A80E701AC01DB01E701D601E701D601AB02A4
S31500002A9064032D03350339034B026403204605A95D
S31500002AA003AAFFF7F1FE41F20303984240F049837F
S31500002AB0049B236500236365039AAA4B9A4240F060
S31500002AC04A81022336E3204605A903AAFFF7DCFE66
S31500002AD041F20303984240F0348394F84420039B68
S31500002AE01AB1A14A93427AD035E194F8422012F005
S31500002AF0010F9E4A49D094F84310002945D19342CC
S31500002B0074D016D89A4A934200F0258105D8954A82
S31500002B10934200F02081974A1CE0974A934200F0C6
S31500002B201A8102F10132934223D1122384F84630EE
S31500002B3028E08D4A934217D007D8904A93420CD08A
S31500002B408F4A934215D10E23F4E28E4A934200F047
S31500002B5002818D4A93420CD1FDE00F2384F8463062
S31500002B60236DA365E1657CE7FFF7EEF8002836D014
S31500002B70F1E0122384F8463003A8FFF7E1F80028B5
S31500002B8040F0EC8041F20800DBE2934229D00AD8FB
S31500002B90774A934211D0784A934210D0754A9342AD
S31500002BA026D10623C6E2774A93420CD0764A934250
S31500002BB007D06D4A93421BD107E00423BAE20723EC
S31500002BC0B8E20923B6E20B23B4E2FFF7BDF800280A
S31500002BD040F0C18094F84330002B40F0BC800C23B9
S31500002BE0A8E294F84330002B40F0B5801023A1E210
S31500002BF003A8FFF7A5F8D0B11123039884F846304F
S31500002C00C4F88C00FFF79EF894F842309A06064600
S31500002C107FF527AF00283FF424AF4368002B3FF42D
S31500002C2020AF2046984700283FF41BAF96E01223BA
S31500002C3084F8463094F84330002BA3D041F20400C8
S31500002C407FE29DF826309DF827201B0443EA0263A5
S31500002C509DF8242013439DF8252043EA022302937E
S31500002C60DB0726D594F8423043F0010384F842305E
S31500002C70FFF76AF838BB636D072B4FF0010300F2CC
S31500002C8059820093002301932046082305A908AA28
S31500002C90FFF78DFD41F20303984240F052829DF802
S31500002CA02330032BCDD0122384F8463041F209009D
S31500002CB047E2FFF74BF80028DAD0122384F84630B3
S31500002CC041F20A003DE2029BDF05F6D5D3E7052374
S31500002CD084F84630012384F8453000236366636D2B
S31500002CE0072B3FF6BEAE0127082300970197204623
S31500002CF005A908AAFFF75BFD41F20303984240F0DD
S31500002D0020829DF822309DF82320204988F8007003
S31500002D101B0443EA02639DF8202013439DF82120FB
S31500002D2043EA0223C8F804309DF826309DF8272090
S31500002D301B0443EA02639DF8242013439DF82520D3
S31500002D4043EA022328220293126810688842BED101
S31500002D50D2689A42BBD0122384F8463041F2010071
S31500002D60EFE100BFEB17A603FC0404FCF70A0AF721
S31500002D70F50909F5F40A0AF4F60808F6F90707F959
S31500002D80FA0606FAFD0303FDFE0101FEAD1007B0CB
S31500002D9000920192204605A908AAFFF708FD41F214
S31500002DA00303984240F0CD8108AB08F108020DF10B
S31500002DB0380E1F4603CF7745106051603B4602F13F
S31500002DC00802F6D138681060012388F80130626D78
S31500002DD0236D9A424FF00102DAD384F8462040E68A
S31500002DE00123009301932046042305A908AAFFF7AF
S31500002DF0DEFC41F20303984240F0A3819DF82230A5
S31500002E009DF823201B0443EA02639DF82020134308
S31500002E109DF8212043EA0223226D0293042A88BFEB
S31500002E202366636D032BDBD90A2383E100236366E4
S31500002E3008237FE10A2B4AD12046594652462B46A3
S31500002E40FFF778FD626D236D9A4280F072810699D4
S31500002E5007989B1A94F840200F1A032B174406D99B
S31500002E60032F07D8204605A9FFF77BFC65E19F42A3
S31500002E7003D2F7E7402B28BF4023C0EB010A924458
S31500002E809A4528BF9A46BAF1030F88BF2AF0030A6B
S31500002E9001230DF1200B009301932046534605A90B
S31500002EA05A46FFF784FC41F20303984240F04981F9
S31500002EB094F84630072B01D1AF68F7B9BAF1030F82
S31500002EC0B8D8FF220BF80A200AF1010AF6E7052B0B
S31500002ED0B8D1EB68002BB5D0606E04280CD80AEB8D
S31500002EE00003062B08D909AB181AFF210368C4F89A
S31500002EF08430042200F045F9EF682B68606E59466D
S31500002F005246B847636E534463669BE794F8423073
S31500002F10980630D5D4F88C00FEF714FF064650BB51
S31500002F201CE799062ED56EB333695BB320469847E6
S31500002F30069B079FDF1B94F840301F44874291D3BE
S31500002F40626D236D9B1A402B28BF40239F4228BFEA
S31500002F501F4601230093019320463B4605A908AA74
S31500002F60FFF725FC41F20303984240F0EA8094F80B
S31500002F7042309A0608D4236D626D9A4294F8423024
S31500002F80CFD312E00120D3E7002E3FF4E7AED6F808
S31500002F9008C0BCF1000F3FF4E1AE204608A93A464E
S31500002FA02B46E0470028E6D0CBE09B0640F1C180E7
S31500002FB0002E00F0BE80F368002B00F0BA80204699
S31500002FC029469847002800F0B480BAE00023009311
S31500002FD001932046042305A908AAFFF7E8FB41F25E
S31500002FE00303984240F0AD80D4F88820564B9A42AD
S31500002FF005D0122384F8463041F20500A1E0FEF721
S31500003000A3FE10B9012388F8033098F80330002B8B
S315000030103DD094F845303BB1EE682EB1042004F162
S31500003020840102462B68B047236E83B36B6873B383
S3150000303018AF4FF0FF3347F8583D04F18009384682
S315000030404946042200F082F840B1FEF787FE28B117
S315000030506E682B68043049460422B04704F16806BE
S3150000306038463146042200F071F880B16F68FEF7E9
S315000030706FFE04F16C0114222B680830B8476F68A4
S31500003080FEF766FE3146043004222B68B84701235A
S3150000309088F802300D2384F846304EE00023019371
S315000030A000971023204605A908AAFFF780FB41F2E6
S315000030B00303984245D1D4F848A0FEF7ADFE80231D
S315000030C0009001935046022109AA3B46FDF70AFDEE
S315000030D0636D0F2B4FF00107E0D984F84670C0E40A
S315000030E0012384F8433025E094F844700FBB402355
S315000030F000970197204605A908AAFFF758FB41F259
S31500003100030398421DD1E06CFDF762FDE06C08A94F
S3150000311010AAFDF71BFD38B1122388F8037041F29F
S31500003120060084F846300CE0012388F8033084F862
S315000031304430012384F8463093E4002001E041F254
S31500003140070019B0BDE8F08FE320BBDE10B50A44D6
S31500003150441E914208D014F8013F0878834201D0FA
S31500003160181A10BD0131F4E7002010BD10B5431E3A
S315000031700A44914204D011F8014B03F8014FF8E7D5
S3150000318010BD02440346934202D003F8011BFAE73E
S3150000319070470000F8B500BFF8BC08BC9E467047F3
S315000031A0F8B500BFF8BC08BC9E46704707B0CD5EB8
S315000031B001000000000004018C2B0000004000000C
S315000031C000000400F00001002D0900003109000094
S315000031D0C525000071260000A1260000203300004E
S315000031E02000000000010000050C0000FFFFFFFFAB
S315000031F0FFFFFFFFFFFFFFFF0000000000000000D1
S315000032000000000001000000FFFFFFFF512563FCE6
S31500003210C2CAB9F3849E17A7ADFAE6BCFFFFFFFF4B
S31500003220FFFFFFFF00000000FFFFFFFF96C298D8D8
S315000032304539A1F4A033EB2D817D0377F240A463D9
S31500003240E5E6BCF847422CE1F2D1176BF551BF37E2
S315000032506840B6CBCE5E316B5733CE2B169E0F7CB5
S315000032604AEBE78E9B7F1AFEE242E34F0102030020
S3150000327028000000280000000008000000000400EC
S31500003280883200000200000045465233320000003A
S3150000329001000000010000000018020000D8010033
S315000032A0D89E05C107D57C3617DD703039590EF723
S315000032B0310BC0FF11155868A78FF964A44FFABEE9
S315000032C08000000000000000000000000000000078
S315000032D000000000000000000000000000000000E8
S315000032E000000000000000000000000000000000D8
S315000032F000000000000000000000000000000000C8
S3150000330067E6096A85AE67BB72F36E3C3AF54FA570
S315000033107F520E518C68059BABD9831F19CDE05B9C
S3150000332000010000591E0000211E0000811E000041
S31500003330F11F00002D200000592200002521000069
S315000033402D23000051200000F71E0000591F000029
S31500003350E1160000F11600000F17000045170000E7
S3150000336013B779FAC925DDB7ADF3CFE0F1B614B8D6
S3150000337000000000C0EA2101C0EA21016508000042
S30D000033804108000000000000F6
S503031ADF
S70500000000FA
